{
  "contractName": "Pixel32",
  "abi": [
    {
      "inputs": [],
      "stateMutability": "nonpayable",
      "type": "constructor"
    },
    {
      "anonymous": false,
      "inputs": [
        {
          "indexed": true,
          "internalType": "address",
          "name": "owner",
          "type": "address"
        },
        {
          "indexed": true,
          "internalType": "address",
          "name": "approved",
          "type": "address"
        },
        {
          "indexed": true,
          "internalType": "uint256",
          "name": "tokenId",
          "type": "uint256"
        }
      ],
      "name": "Approval",
      "type": "event"
    },
    {
      "anonymous": false,
      "inputs": [
        {
          "indexed": true,
          "internalType": "address",
          "name": "owner",
          "type": "address"
        },
        {
          "indexed": true,
          "internalType": "address",
          "name": "operator",
          "type": "address"
        },
        {
          "indexed": false,
          "internalType": "bool",
          "name": "approved",
          "type": "bool"
        }
      ],
      "name": "ApprovalForAll",
      "type": "event"
    },
    {
      "anonymous": false,
      "inputs": [
        {
          "indexed": true,
          "internalType": "address",
          "name": "from",
          "type": "address"
        },
        {
          "indexed": true,
          "internalType": "address",
          "name": "to",
          "type": "address"
        },
        {
          "indexed": true,
          "internalType": "uint256",
          "name": "tokenId",
          "type": "uint256"
        }
      ],
      "name": "Transfer",
      "type": "event"
    },
    {
      "inputs": [
        {
          "internalType": "address",
          "name": "to",
          "type": "address"
        },
        {
          "internalType": "uint256",
          "name": "tokenId",
          "type": "uint256"
        }
      ],
      "name": "approve",
      "outputs": [],
      "stateMutability": "nonpayable",
      "type": "function"
    },
    {
      "inputs": [
        {
          "internalType": "address",
          "name": "owner",
          "type": "address"
        }
      ],
      "name": "balanceOf",
      "outputs": [
        {
          "internalType": "uint256",
          "name": "",
          "type": "uint256"
        }
      ],
      "stateMutability": "view",
      "type": "function",
      "constant": true
    },
    {
      "inputs": [
        {
          "internalType": "uint256",
          "name": "tokenId",
          "type": "uint256"
        }
      ],
      "name": "getApproved",
      "outputs": [
        {
          "internalType": "address",
          "name": "",
          "type": "address"
        }
      ],
      "stateMutability": "view",
      "type": "function",
      "constant": true
    },
    {
      "inputs": [
        {
          "internalType": "address",
          "name": "owner",
          "type": "address"
        },
        {
          "internalType": "address",
          "name": "operator",
          "type": "address"
        }
      ],
      "name": "isApprovedForAll",
      "outputs": [
        {
          "internalType": "bool",
          "name": "",
          "type": "bool"
        }
      ],
      "stateMutability": "view",
      "type": "function",
      "constant": true
    },
    {
      "inputs": [],
      "name": "name",
      "outputs": [
        {
          "internalType": "string",
          "name": "",
          "type": "string"
        }
      ],
      "stateMutability": "view",
      "type": "function",
      "constant": true
    },
    {
      "inputs": [
        {
          "internalType": "uint256",
          "name": "tokenId",
          "type": "uint256"
        }
      ],
      "name": "ownerOf",
      "outputs": [
        {
          "internalType": "address",
          "name": "",
          "type": "address"
        }
      ],
      "stateMutability": "view",
      "type": "function",
      "constant": true
    },
    {
      "inputs": [
        {
          "internalType": "uint256",
          "name": "",
          "type": "uint256"
        }
      ],
      "name": "pixArts",
      "outputs": [
        {
          "internalType": "string",
          "name": "",
          "type": "string"
        }
      ],
      "stateMutability": "view",
      "type": "function",
      "constant": true
    },
    {
      "inputs": [
        {
          "internalType": "address",
          "name": "from",
          "type": "address"
        },
        {
          "internalType": "address",
          "name": "to",
          "type": "address"
        },
        {
          "internalType": "uint256",
          "name": "tokenId",
          "type": "uint256"
        }
      ],
      "name": "safeTransferFrom",
      "outputs": [],
      "stateMutability": "nonpayable",
      "type": "function"
    },
    {
      "inputs": [
        {
          "internalType": "address",
          "name": "from",
          "type": "address"
        },
        {
          "internalType": "address",
          "name": "to",
          "type": "address"
        },
        {
          "internalType": "uint256",
          "name": "tokenId",
          "type": "uint256"
        },
        {
          "internalType": "bytes",
          "name": "_data",
          "type": "bytes"
        }
      ],
      "name": "safeTransferFrom",
      "outputs": [],
      "stateMutability": "nonpayable",
      "type": "function"
    },
    {
      "inputs": [
        {
          "internalType": "address",
          "name": "operator",
          "type": "address"
        },
        {
          "internalType": "bool",
          "name": "approved",
          "type": "bool"
        }
      ],
      "name": "setApprovalForAll",
      "outputs": [],
      "stateMutability": "nonpayable",
      "type": "function"
    },
    {
      "inputs": [
        {
          "internalType": "bytes4",
          "name": "interfaceId",
          "type": "bytes4"
        }
      ],
      "name": "supportsInterface",
      "outputs": [
        {
          "internalType": "bool",
          "name": "",
          "type": "bool"
        }
      ],
      "stateMutability": "view",
      "type": "function",
      "constant": true
    },
    {
      "inputs": [],
      "name": "symbol",
      "outputs": [
        {
          "internalType": "string",
          "name": "",
          "type": "string"
        }
      ],
      "stateMutability": "view",
      "type": "function",
      "constant": true
    },
    {
      "inputs": [
        {
          "internalType": "uint256",
          "name": "tokenId",
          "type": "uint256"
        }
      ],
      "name": "tokenURI",
      "outputs": [
        {
          "internalType": "string",
          "name": "",
          "type": "string"
        }
      ],
      "stateMutability": "view",
      "type": "function",
      "constant": true
    },
    {
      "inputs": [
        {
          "internalType": "address",
          "name": "from",
          "type": "address"
        },
        {
          "internalType": "address",
          "name": "to",
          "type": "address"
        },
        {
          "internalType": "uint256",
          "name": "tokenId",
          "type": "uint256"
        }
      ],
      "name": "transferFrom",
      "outputs": [],
      "stateMutability": "nonpayable",
      "type": "function"
    }
  ],
  "bytecode": "0x60806040523480156200001157600080fd5b506040518060400160405280600881526020017f506978656c4172740000000000000000000000000000000000000000000000008152506040518060400160405280600381526020017f5049580000000000000000000000000000000000000000000000000000000000815250816000908051906020019062000096929190620000b8565b508060019080519060200190620000af929190620000b8565b505050620001cd565b828054620000c69062000168565b90600052602060002090601f016020900481019282620000ea576000855562000136565b82601f106200010557805160ff191683800117855562000136565b8280016001018555821562000136579182015b828111156200013557825182559160200191906001019062000118565b5b50905062000145919062000149565b5090565b5b80821115620001645760008160009055506001016200014a565b5090565b600060028204905060018216806200018157607f821691505b602082108114156200019857620001976200019e565b5b50919050565b7f4e487b7100000000000000000000000000000000000000000000000000000000600052602260045260246000fd5b6123e680620001dd6000396000f3fe608060405234801561001057600080fd5b50600436106100ea5760003560e01c80636352211e1161008c578063a22cb46511610066578063a22cb4651461026f578063b88d4fde1461028b578063c87b56dd146102a7578063e985e9c5146102d7576100ea565b80636352211e146101f157806370a082311461022157806395d89b4114610251576100ea565b8063095ea7b3116100c8578063095ea7b31461016d57806323b872dd1461018957806342478cf3146101a557806342842e0e146101d5576100ea565b806301ffc9a7146100ef57806306fdde031461011f578063081812fc1461013d575b600080fd5b61010960048036038101906101049190611776565b610307565b6040516101169190611dee565b60405180910390f35b6101276103e9565b6040516101349190611e09565b60405180910390f35b610157600480360381019061015291906117c8565b61047b565b6040516101649190611d87565b60405180910390f35b6101876004803603810190610182919061173a565b610500565b005b6101a3600480360381019061019e9190611634565b610618565b005b6101bf60048036038101906101ba91906117c8565b610678565b6040516101cc9190611e09565b60405180910390f35b6101ef60048036038101906101ea9190611634565b610724565b005b61020b600480360381019061020691906117c8565b610744565b6040516102189190611d87565b60405180910390f35b61023b600480360381019061023691906115cf565b6107f6565b6040516102489190611fab565b60405180910390f35b6102596108ae565b6040516102669190611e09565b60405180910390f35b610289600480360381019061028491906116fe565b610940565b005b6102a560048036038101906102a09190611683565b610ac1565b005b6102c160048036038101906102bc91906117c8565b610b23565b6040516102ce9190611e09565b60405180910390f35b6102f160048036038101906102ec91906115f8565b610bca565b6040516102fe9190611dee565b60405180910390f35b60007f80ac58cd000000000000000000000000000000000000000000000000000000007bffffffffffffffffffffffffffffffffffffffffffffffffffffffff1916827bffffffffffffffffffffffffffffffffffffffffffffffffffffffff191614806103d257507f5b5e139f000000000000000000000000000000000000000000000000000000007bffffffffffffffffffffffffffffffffffffffffffffffffffffffff1916827bffffffffffffffffffffffffffffffffffffffffffffffffffffffff1916145b806103e257506103e182610c5e565b5b9050919050565b6060600080546103f8906121db565b80601f0160208091040260200160405190810160405280929190818152602001828054610424906121db565b80156104715780601f1061044657610100808354040283529160200191610471565b820191906000526020600020905b81548152906001019060200180831161045457829003601f168201915b5050505050905090565b600061048682610cc8565b6104c5576040517f08c379a00000000000000000000000000000000000000000000000000000000081526004016104bc90611f0b565b60405180910390fd5b6004600083815260200190815260200160002060009054906101000a900473ffffffffffffffffffffffffffffffffffffffff169050919050565b600061050b82610744565b90508073ffffffffffffffffffffffffffffffffffffffff168373ffffffffffffffffffffffffffffffffffffffff16141561057c576040517f08c379a000000000000000000000000000000000000000000000000000000000815260040161057390611f6b565b60405180910390fd5b8073ffffffffffffffffffffffffffffffffffffffff1661059b610d34565b73ffffffffffffffffffffffffffffffffffffffff1614806105ca57506105c9816105c4610d34565b610bca565b5b610609576040517f08c379a000000000000000000000000000000000000000000000000000000000815260040161060090611eab565b60405180910390fd5b6106138383610d3c565b505050565b610629610623610d34565b82610df5565b610668576040517f08c379a000000000000000000000000000000000000000000000000000000000815260040161065f90611f8b565b60405180910390fd5b610673838383610ed3565b505050565b6006818154811061068857600080fd5b9060005260206000200160009150905080546106a3906121db565b80601f01602080910402602001604051908101604052809291908181526020018280546106cf906121db565b801561071c5780601f106106f15761010080835404028352916020019161071c565b820191906000526020600020905b8154815290600101906020018083116106ff57829003601f168201915b505050505081565b61073f83838360405180602001604052806000815250610ac1565b505050565b6000806002600084815260200190815260200160002060009054906101000a900473ffffffffffffffffffffffffffffffffffffffff169050600073ffffffffffffffffffffffffffffffffffffffff168173ffffffffffffffffffffffffffffffffffffffff1614156107ed576040517f08c379a00000000000000000000000000000000000000000000000000000000081526004016107e490611eeb565b60405180910390fd5b80915050919050565b60008073ffffffffffffffffffffffffffffffffffffffff168273ffffffffffffffffffffffffffffffffffffffff161415610867576040517f08c379a000000000000000000000000000000000000000000000000000000000815260040161085e90611ecb565b60405180910390fd5b600360008373ffffffffffffffffffffffffffffffffffffffff1673ffffffffffffffffffffffffffffffffffffffff168152602001908152602001600020549050919050565b6060600180546108bd906121db565b80601f01602080910402602001604051908101604052809291908181526020018280546108e9906121db565b80156109365780601f1061090b57610100808354040283529160200191610936565b820191906000526020600020905b81548152906001019060200180831161091957829003601f168201915b5050505050905090565b610948610d34565b73ffffffffffffffffffffffffffffffffffffffff168273ffffffffffffffffffffffffffffffffffffffff1614156109b6576040517f08c379a00000000000000000000000000000000000000000000000000000000081526004016109ad90611e6b565b60405180910390fd5b80600560006109c3610d34565b73ffffffffffffffffffffffffffffffffffffffff1673ffffffffffffffffffffffffffffffffffffffff16815260200190815260200160002060008473ffffffffffffffffffffffffffffffffffffffff1673ffffffffffffffffffffffffffffffffffffffff16815260200190815260200160002060006101000a81548160ff0219169083151502179055508173ffffffffffffffffffffffffffffffffffffffff16610a70610d34565b73ffffffffffffffffffffffffffffffffffffffff167f17307eab39ab6107e8899845ad3d59bd9653f200f220920489ca2b5937696c3183604051610ab59190611dee565b60405180910390a35050565b610ad2610acc610d34565b83610df5565b610b11576040517f08c379a0000000000000000000000000000000000000000000000000000000008152600401610b0890611f8b565b60405180910390fd5b610b1d8484848461112f565b50505050565b6060610b2e82610cc8565b610b6d576040517f08c379a0000000000000000000000000000000000000000000000000000000008152600401610b6490611f4b565b60405180910390fd5b6000610b7761118b565b90506000815111610b975760405180602001604052806000815250610bc2565b80610ba1846111a2565b604051602001610bb2929190611d63565b6040516020818303038152906040525b915050919050565b6000600560008473ffffffffffffffffffffffffffffffffffffffff1673ffffffffffffffffffffffffffffffffffffffff16815260200190815260200160002060008373ffffffffffffffffffffffffffffffffffffffff1673ffffffffffffffffffffffffffffffffffffffff16815260200190815260200160002060009054906101000a900460ff16905092915050565b60007f01ffc9a7000000000000000000000000000000000000000000000000000000007bffffffffffffffffffffffffffffffffffffffffffffffffffffffff1916827bffffffffffffffffffffffffffffffffffffffffffffffffffffffff1916149050919050565b60008073ffffffffffffffffffffffffffffffffffffffff166002600084815260200190815260200160002060009054906101000a900473ffffffffffffffffffffffffffffffffffffffff1673ffffffffffffffffffffffffffffffffffffffff1614159050919050565b600033905090565b816004600083815260200190815260200160002060006101000a81548173ffffffffffffffffffffffffffffffffffffffff021916908373ffffffffffffffffffffffffffffffffffffffff160217905550808273ffffffffffffffffffffffffffffffffffffffff16610daf83610744565b73ffffffffffffffffffffffffffffffffffffffff167f8c5be1e5ebec7d5bd14f71427d1e84f3dd0314c0f7b2291e5b200ac8c7c3b92560405160405180910390a45050565b6000610e0082610cc8565b610e3f576040517f08c379a0000000000000000000000000000000000000000000000000000000008152600401610e3690611e8b565b60405180910390fd5b6000610e4a83610744565b90508073ffffffffffffffffffffffffffffffffffffffff168473ffffffffffffffffffffffffffffffffffffffff161480610eb957508373ffffffffffffffffffffffffffffffffffffffff16610ea18461047b565b73ffffffffffffffffffffffffffffffffffffffff16145b80610eca5750610ec98185610bca565b5b91505092915050565b8273ffffffffffffffffffffffffffffffffffffffff16610ef382610744565b73ffffffffffffffffffffffffffffffffffffffff1614610f49576040517f08c379a0000000000000000000000000000000000000000000000000000000008152600401610f4090611f2b565b60405180910390fd5b600073ffffffffffffffffffffffffffffffffffffffff168273ffffffffffffffffffffffffffffffffffffffff161415610fb9576040517f08c379a0000000000000000000000000000000000000000000000000000000008152600401610fb090611e4b565b60405180910390fd5b610fc483838361134f565b610fcf600082610d3c565b6001600360008573ffffffffffffffffffffffffffffffffffffffff1673ffffffffffffffffffffffffffffffffffffffff168152602001908152602001600020600082825461101f91906120f1565b925050819055506001600360008473ffffffffffffffffffffffffffffffffffffffff1673ffffffffffffffffffffffffffffffffffffffff1681526020019081526020016000206000828254611076919061206a565b92505081905550816002600083815260200190815260200160002060006101000a81548173ffffffffffffffffffffffffffffffffffffffff021916908373ffffffffffffffffffffffffffffffffffffffff160217905550808273ffffffffffffffffffffffffffffffffffffffff168473ffffffffffffffffffffffffffffffffffffffff167fddf252ad1be2c89b69c2b068fc378daa952ba7f163c4a11628f55a4df523b3ef60405160405180910390a4505050565b61113a848484610ed3565b61114684848484611354565b611185576040517f08c379a000000000000000000000000000000000000000000000000000000000815260040161117c90611e2b565b60405180910390fd5b50505050565b606060405180602001604052806000815250905090565b606060008214156111ea576040518060400160405280600181526020017f3000000000000000000000000000000000000000000000000000000000000000815250905061134a565b600082905060005b6000821461121c5780806112059061220d565b915050600a8261121591906120c0565b91506111f2565b60008167ffffffffffffffff81111561125e577f4e487b7100000000000000000000000000000000000000000000000000000000600052604160045260246000fd5b6040519080825280601f01601f1916602001820160405280156112905781602001600182028036833780820191505090505b5090505b60008514611343576001826112a991906120f1565b9150600a856112b89190612256565b60306112c4919061206a565b60f81b818381518110611300577f4e487b7100000000000000000000000000000000000000000000000000000000600052603260045260246000fd5b60200101907effffffffffffffffffffffffffffffffffffffffffffffffffffffffffffff1916908160001a905350600a8561133c91906120c0565b9450611294565b8093505050505b919050565b505050565b60006113758473ffffffffffffffffffffffffffffffffffffffff166114eb565b156114de578373ffffffffffffffffffffffffffffffffffffffff1663150b7a0261139e610d34565b8786866040518563ffffffff1660e01b81526004016113c09493929190611da2565b602060405180830381600087803b1580156113da57600080fd5b505af192505050801561140b57506040513d601f19601f82011682018060405250810190611408919061179f565b60015b61148e573d806000811461143b576040519150601f19603f3d011682016040523d82523d6000602084013e611440565b606091505b50600081511415611486576040517f08c379a000000000000000000000000000000000000000000000000000000000815260040161147d90611e2b565b60405180910390fd5b805181602001fd5b63150b7a0260e01b7bffffffffffffffffffffffffffffffffffffffffffffffffffffffff1916817bffffffffffffffffffffffffffffffffffffffffffffffffffffffff1916149150506114e3565b600190505b949350505050565b600080823b905060008111915050919050565b600061151161150c84611ff7565b611fc6565b90508281526020810184848401111561152957600080fd5b611534848285612199565b509392505050565b60008135905061154b81612354565b92915050565b6000813590506115608161236b565b92915050565b60008135905061157581612382565b92915050565b60008151905061158a81612382565b92915050565b600082601f8301126115a157600080fd5b81356115b18482602086016114fe565b91505092915050565b6000813590506115c981612399565b92915050565b6000602082840312156115e157600080fd5b60006115ef8482850161153c565b91505092915050565b6000806040838503121561160b57600080fd5b60006116198582860161153c565b925050602061162a8582860161153c565b9150509250929050565b60008060006060848603121561164957600080fd5b60006116578682870161153c565b93505060206116688682870161153c565b9250506040611679868287016115ba565b9150509250925092565b6000806000806080858703121561169957600080fd5b60006116a78782880161153c565b94505060206116b88782880161153c565b93505060406116c9878288016115ba565b925050606085013567ffffffffffffffff8111156116e657600080fd5b6116f287828801611590565b91505092959194509250565b6000806040838503121561171157600080fd5b600061171f8582860161153c565b925050602061173085828601611551565b9150509250929050565b6000806040838503121561174d57600080fd5b600061175b8582860161153c565b925050602061176c858286016115ba565b9150509250929050565b60006020828403121561178857600080fd5b600061179684828501611566565b91505092915050565b6000602082840312156117b157600080fd5b60006117bf8482850161157b565b91505092915050565b6000602082840312156117da57600080fd5b60006117e8848285016115ba565b91505092915050565b6117fa81612125565b82525050565b61180981612137565b82525050565b600061181a82612027565b611824818561203d565b93506118348185602086016121a8565b61183d81612343565b840191505092915050565b600061185382612032565b61185d818561204e565b935061186d8185602086016121a8565b61187681612343565b840191505092915050565b600061188c82612032565b611896818561205f565b93506118a68185602086016121a8565b80840191505092915050565b60006118bf60328361204e565b91507f4552433732313a207472616e7366657220746f206e6f6e20455243373231526560008301527f63656976657220696d706c656d656e74657200000000000000000000000000006020830152604082019050919050565b600061192560248361204e565b91507f4552433732313a207472616e7366657220746f20746865207a65726f2061646460008301527f72657373000000000000000000000000000000000000000000000000000000006020830152604082019050919050565b600061198b60198361204e565b91507f4552433732313a20617070726f766520746f2063616c6c6572000000000000006000830152602082019050919050565b60006119cb602c8361204e565b91507f4552433732313a206f70657261746f7220717565727920666f72206e6f6e657860008301527f697374656e7420746f6b656e00000000000000000000000000000000000000006020830152604082019050919050565b6000611a3160388361204e565b91507f4552433732313a20617070726f76652063616c6c6572206973206e6f74206f7760008301527f6e6572206e6f7220617070726f76656420666f7220616c6c00000000000000006020830152604082019050919050565b6000611a97602a8361204e565b91507f4552433732313a2062616c616e636520717565727920666f7220746865207a6560008301527f726f2061646472657373000000000000000000000000000000000000000000006020830152604082019050919050565b6000611afd60298361204e565b91507f4552433732313a206f776e657220717565727920666f72206e6f6e657869737460008301527f656e7420746f6b656e00000000000000000000000000000000000000000000006020830152604082019050919050565b6000611b63602c8361204e565b91507f4552433732313a20617070726f76656420717565727920666f72206e6f6e657860008301527f697374656e7420746f6b656e00000000000000000000000000000000000000006020830152604082019050919050565b6000611bc960298361204e565b91507f4552433732313a207472616e73666572206f6620746f6b656e2074686174206960008301527f73206e6f74206f776e00000000000000000000000000000000000000000000006020830152604082019050919050565b6000611c2f602f8361204e565b91507f4552433732314d657461646174613a2055524920717565727920666f72206e6f60008301527f6e6578697374656e7420746f6b656e00000000000000000000000000000000006020830152604082019050919050565b6000611c9560218361204e565b91507f4552433732313a20617070726f76616c20746f2063757272656e74206f776e6560008301527f72000000000000000000000000000000000000000000000000000000000000006020830152604082019050919050565b6000611cfb60318361204e565b91507f4552433732313a207472616e736665722063616c6c6572206973206e6f74206f60008301527f776e6572206e6f7220617070726f7665640000000000000000000000000000006020830152604082019050919050565b611d5d8161218f565b82525050565b6000611d6f8285611881565b9150611d7b8284611881565b91508190509392505050565b6000602082019050611d9c60008301846117f1565b92915050565b6000608082019050611db760008301876117f1565b611dc460208301866117f1565b611dd16040830185611d54565b8181036060830152611de3818461180f565b905095945050505050565b6000602082019050611e036000830184611800565b92915050565b60006020820190508181036000830152611e238184611848565b905092915050565b60006020820190508181036000830152611e44816118b2565b9050919050565b60006020820190508181036000830152611e6481611918565b9050919050565b60006020820190508181036000830152611e848161197e565b9050919050565b60006020820190508181036000830152611ea4816119be565b9050919050565b60006020820190508181036000830152611ec481611a24565b9050919050565b60006020820190508181036000830152611ee481611a8a565b9050919050565b60006020820190508181036000830152611f0481611af0565b9050919050565b60006020820190508181036000830152611f2481611b56565b9050919050565b60006020820190508181036000830152611f4481611bbc565b9050919050565b60006020820190508181036000830152611f6481611c22565b9050919050565b60006020820190508181036000830152611f8481611c88565b9050919050565b60006020820190508181036000830152611fa481611cee565b9050919050565b6000602082019050611fc06000830184611d54565b92915050565b6000604051905081810181811067ffffffffffffffff82111715611fed57611fec612314565b5b8060405250919050565b600067ffffffffffffffff82111561201257612011612314565b5b601f19601f8301169050602081019050919050565b600081519050919050565b600081519050919050565b600082825260208201905092915050565b600082825260208201905092915050565b600081905092915050565b60006120758261218f565b91506120808361218f565b9250827fffffffffffffffffffffffffffffffffffffffffffffffffffffffffffffffff038211156120b5576120b4612287565b5b828201905092915050565b60006120cb8261218f565b91506120d68361218f565b9250826120e6576120e56122b6565b5b828204905092915050565b60006120fc8261218f565b91506121078361218f565b92508282101561211a57612119612287565b5b828203905092915050565b60006121308261216f565b9050919050565b60008115159050919050565b60007fffffffff0000000000000000000000000000000000000000000000000000000082169050919050565b600073ffffffffffffffffffffffffffffffffffffffff82169050919050565b6000819050919050565b82818337600083830152505050565b60005b838110156121c65780820151818401526020810190506121ab565b838111156121d5576000848401525b50505050565b600060028204905060018216806121f357607f821691505b60208210811415612207576122066122e5565b5b50919050565b60006122188261218f565b91507fffffffffffffffffffffffffffffffffffffffffffffffffffffffffffffffff82141561224b5761224a612287565b5b600182019050919050565b60006122618261218f565b915061226c8361218f565b92508261227c5761227b6122b6565b5b828206905092915050565b7f4e487b7100000000000000000000000000000000000000000000000000000000600052601160045260246000fd5b7f4e487b7100000000000000000000000000000000000000000000000000000000600052601260045260246000fd5b7f4e487b7100000000000000000000000000000000000000000000000000000000600052602260045260246000fd5b7f4e487b7100000000000000000000000000000000000000000000000000000000600052604160045260246000fd5b6000601f19601f8301169050919050565b61235d81612125565b811461236857600080fd5b50565b61237481612137565b811461237f57600080fd5b50565b61238b81612143565b811461239657600080fd5b50565b6123a28161218f565b81146123ad57600080fd5b5056fea2646970667358221220c906d95146d4bff4c68710320dc64663c115fccdd8dff48d08f44f8d8f4f675964736f6c63430008000033",
  "immutableReferences": {},
  "source": "pragma solidity ^0.8.0;\r\n\r\nimport \"@openzeppelin/contracts/token/ERC721/ERC721.sol\";\r\nimport \"@openzeppelin/contracts/utils/structs/EnumerableMap.sol\";\r\n\r\ncontract Pixel32 is ERC721 {\r\n    // using EnumerableMap for EnumerableMap.Map;\r\n    // EnumerableMap private _pixArts;\r\n\r\n    string[] public pixArts;\r\n\r\n    mapping(string => bool) _pixArtExists;\r\n\r\n    constructor() ERC721(\"PixelArt\", \"PIX\") {}\r\n}\r\n",
  "sourcePath": "C:/Users/MrLion/Documents/Projects/LearnItAll/Hackathons/NFTPainter/NFTPainter/nft-painter/contracts/Pixel32.sol",
  "compiler": {
    "name": "solc",
    "version": "0.8.0+commit.c7dfd78e.Emscripten.clang"
  },
  "schemaVersion": "3.3.4",
  "updatedAt": "2021-03-28T13:32:07.065Z",
  "networkType": "ethereum",
  "devdoc": {
    "kind": "dev",
    "methods": {
      "approve(address,uint256)": {
        "details": "See {IERC721-approve}."
      },
      "balanceOf(address)": {
        "details": "See {IERC721-balanceOf}."
      },
      "getApproved(uint256)": {
        "details": "See {IERC721-getApproved}."
      },
      "isApprovedForAll(address,address)": {
        "details": "See {IERC721-isApprovedForAll}."
      },
      "name()": {
        "details": "See {IERC721Metadata-name}."
      },
      "ownerOf(uint256)": {
        "details": "See {IERC721-ownerOf}."
      },
      "safeTransferFrom(address,address,uint256)": {
        "details": "See {IERC721-safeTransferFrom}."
      },
      "safeTransferFrom(address,address,uint256,bytes)": {
        "details": "See {IERC721-safeTransferFrom}."
      },
      "setApprovalForAll(address,bool)": {
        "details": "See {IERC721-setApprovalForAll}."
      },
      "supportsInterface(bytes4)": {
        "details": "See {IERC165-supportsInterface}."
      },
      "symbol()": {
        "details": "See {IERC721Metadata-symbol}."
      },
      "tokenURI(uint256)": {
        "details": "See {IERC721Metadata-tokenURI}."
      },
      "transferFrom(address,address,uint256)": {
        "details": "See {IERC721-transferFrom}."
      }
    },
    "version": 1
  },
  "userdoc": {
    "kind": "user",
    "methods": {},
    "version": 1
  }
}